{
  "_format": "hh-sol-artifact-1",
  "contractName": "Campaign",
  "sourceName": "contracts/Crowdfunding.sol",
  "abi": [
    {
      "inputs": [
        {
          "internalType": "address",
          "name": "_creator",
          "type": "address"
        },
        {
          "internalType": "string",
          "name": "_title",
          "type": "string"
        },
        {
          "internalType": "string",
          "name": "_description",
          "type": "string"
        },
        {
          "internalType": "uint256",
          "name": "_goalAmount",
          "type": "uint256"
        },
        {
          "internalType": "uint256",
          "name": "_durationInDays",
          "type": "uint256"
        }
      ],
      "stateMutability": "nonpayable",
      "type": "constructor"
    },
    {
      "anonymous": false,
      "inputs": [
        {
          "indexed": false,
          "internalType": "address",
          "name": "contributor",
          "type": "address"
        },
        {
          "indexed": false,
          "internalType": "uint256",
          "name": "amount",
          "type": "uint256"
        }
      ],
      "name": "ContributionReceived",
      "type": "event"
    },
    {
      "anonymous": false,
      "inputs": [
        {
          "indexed": false,
          "internalType": "uint256",
          "name": "milestoneId",
          "type": "uint256"
        },
        {
          "indexed": false,
          "internalType": "uint256",
          "name": "amount",
          "type": "uint256"
        }
      ],
      "name": "FundsReleased",
      "type": "event"
    },
    {
      "anonymous": false,
      "inputs": [
        {
          "indexed": false,
          "internalType": "uint256",
          "name": "milestoneId",
          "type": "uint256"
        },
        {
          "indexed": false,
          "internalType": "address",
          "name": "approver",
          "type": "address"
        }
      ],
      "name": "MilestoneApproved",
      "type": "event"
    },
    {
      "anonymous": false,
      "inputs": [
        {
          "indexed": false,
          "internalType": "address",
          "name": "contributor",
          "type": "address"
        },
        {
          "indexed": false,
          "internalType": "uint256",
          "name": "amount",
          "type": "uint256"
        }
      ],
      "name": "RefundIssued",
      "type": "event"
    },
    {
      "inputs": [
        {
          "internalType": "string",
          "name": "_description",
          "type": "string"
        },
        {
          "internalType": "uint256",
          "name": "_amount",
          "type": "uint256"
        }
      ],
      "name": "addMilestone",
      "outputs": [],
      "stateMutability": "nonpayable",
      "type": "function"
    },
    {
      "inputs": [
        {
          "internalType": "uint256",
          "name": "_milestoneId",
          "type": "uint256"
        }
      ],
      "name": "approveMilestone",
      "outputs": [],
      "stateMutability": "nonpayable",
      "type": "function"
    },
    {
      "inputs": [],
      "name": "contribute",
      "outputs": [],
      "stateMutability": "payable",
      "type": "function"
    },
    {
      "inputs": [
        {
          "internalType": "address",
          "name": "",
          "type": "address"
        }
      ],
      "name": "contributors",
      "outputs": [
        {
          "internalType": "bool",
          "name": "",
          "type": "bool"
        }
      ],
      "stateMutability": "view",
      "type": "function"
    },
    {
      "inputs": [],
      "name": "creator",
      "outputs": [
        {
          "internalType": "address payable",
          "name": "",
          "type": "address"
        }
      ],
      "stateMutability": "view",
      "type": "function"
    },
    {
      "inputs": [],
      "name": "currentAmount",
      "outputs": [
        {
          "internalType": "uint256",
          "name": "",
          "type": "uint256"
        }
      ],
      "stateMutability": "view",
      "type": "function"
    },
    {
      "inputs": [],
      "name": "currentMilestone",
      "outputs": [
        {
          "internalType": "uint256",
          "name": "",
          "type": "uint256"
        }
      ],
      "stateMutability": "view",
      "type": "function"
    },
    {
      "inputs": [],
      "name": "deadline",
      "outputs": [
        {
          "internalType": "uint256",
          "name": "",
          "type": "uint256"
        }
      ],
      "stateMutability": "view",
      "type": "function"
    },
    {
      "inputs": [],
      "name": "description",
      "outputs": [
        {
          "internalType": "string",
          "name": "",
          "type": "string"
        }
      ],
      "stateMutability": "view",
      "type": "function"
    },
    {
      "inputs": [],
      "name": "fundsReleased",
      "outputs": [
        {
          "internalType": "bool",
          "name": "",
          "type": "bool"
        }
      ],
      "stateMutability": "view",
      "type": "function"
    },
    {
      "inputs": [
        {
          "internalType": "uint256",
          "name": "_milestoneId",
          "type": "uint256"
        }
      ],
      "name": "getMilestoneProgress",
      "outputs": [
        {
          "internalType": "uint256",
          "name": "",
          "type": "uint256"
        },
        {
          "internalType": "uint256",
          "name": "",
          "type": "uint256"
        }
      ],
      "stateMutability": "view",
      "type": "function"
    },
    {
      "inputs": [],
      "name": "goalAmount",
      "outputs": [
        {
          "internalType": "uint256",
          "name": "",
          "type": "uint256"
        }
      ],
      "stateMutability": "view",
      "type": "function"
    },
    {
      "inputs": [],
      "name": "milestoneCount",
      "outputs": [
        {
          "internalType": "uint256",
          "name": "",
          "type": "uint256"
        }
      ],
      "stateMutability": "view",
      "type": "function"
    },
    {
      "inputs": [
        {
          "internalType": "uint256",
          "name": "",
          "type": "uint256"
        }
      ],
      "name": "milestones",
      "outputs": [
        {
          "internalType": "string",
          "name": "description",
          "type": "string"
        },
        {
          "internalType": "uint256",
          "name": "amount",
          "type": "uint256"
        },
        {
          "internalType": "uint256",
          "name": "contributedAmount",
          "type": "uint256"
        },
        {
          "internalType": "bool",
          "name": "approved",
          "type": "bool"
        },
        {
          "internalType": "uint256",
          "name": "approvalCount",
          "type": "uint256"
        }
      ],
      "stateMutability": "view",
      "type": "function"
    },
    {
      "inputs": [],
      "name": "releaseMilestoneFunds",
      "outputs": [],
      "stateMutability": "nonpayable",
      "type": "function"
    },
    {
      "inputs": [],
      "name": "requestRefund",
      "outputs": [],
      "stateMutability": "nonpayable",
      "type": "function"
    },
    {
      "inputs": [],
      "name": "title",
      "outputs": [
        {
          "internalType": "string",
          "name": "",
          "type": "string"
        }
      ],
      "stateMutability": "view",
      "type": "function"
    }
  ],
  "bytecode": "0x608060405234801561001057600080fd5b50604051612b07380380612b0783398181016040528101906100329190610385565b60008211610075576040517f08c379a000000000000000000000000000000000000000000000000000000000815260040161006c906104bb565b60405180910390fd5b600081116100b8576040517f08c379a00000000000000000000000000000000000000000000000000000000081526004016100af9061054d565b60405180910390fd5b846000806101000a81548173ffffffffffffffffffffffffffffffffffffffff021916908373ffffffffffffffffffffffffffffffffffffffff16021790555083600190816101079190610784565b5082600290816101179190610784565b5081600381905550600060048190555062015180816101369190610885565b4261014191906108c7565b6005819055506000600860006101000a81548160ff0219169083151502179055506000600681905550600060078190555050505050506108fb565b6000604051905090565b600080fd5b600080fd5b600073ffffffffffffffffffffffffffffffffffffffff82169050919050565b60006101bb82610190565b9050919050565b6101cb816101b0565b81146101d657600080fd5b50565b6000815190506101e8816101c2565b92915050565b600080fd5b600080fd5b6000601f19601f8301169050919050565b7f4e487b7100000000000000000000000000000000000000000000000000000000600052604160045260246000fd5b610241826101f8565b810181811067ffffffffffffffff821117156102605761025f610209565b5b80604052505050565b600061027361017c565b905061027f8282610238565b919050565b600067ffffffffffffffff82111561029f5761029e610209565b5b6102a8826101f8565b9050602081019050919050565b60005b838110156102d35780820151818401526020810190506102b8565b60008484015250505050565b60006102f26102ed84610284565b610269565b90508281526020810184848401111561030e5761030d6101f3565b5b6103198482856102b5565b509392505050565b600082601f830112610336576103356101ee565b5b81516103468482602086016102df565b91505092915050565b6000819050919050565b6103628161034f565b811461036d57600080fd5b50565b60008151905061037f81610359565b92915050565b600080600080600060a086880312156103a1576103a0610186565b5b60006103af888289016101d9565b955050602086015167ffffffffffffffff8111156103d0576103cf61018b565b5b6103dc88828901610321565b945050604086015167ffffffffffffffff8111156103fd576103fc61018b565b5b61040988828901610321565b935050606061041a88828901610370565b925050608061042b88828901610370565b9150509295509295909350565b600082825260208201905092915050565b7f476f616c20616d6f756e742073686f756c64206265206772656174657220746860008201527f616e207a65726f00000000000000000000000000000000000000000000000000602082015250565b60006104a5602783610438565b91506104b082610449565b604082019050919050565b600060208201905081810360008301526104d481610498565b9050919050565b7f4475726174696f6e2073686f756c642062652067726561746572207468616e2060008201527f7a65726f00000000000000000000000000000000000000000000000000000000602082015250565b6000610537602483610438565b9150610542826104db565b604082019050919050565b600060208201905081810360008301526105668161052a565b9050919050565b600081519050919050565b7f4e487b7100000000000000000000000000000000000000000000000000000000600052602260045260246000fd5b600060028204905060018216806105bf57607f821691505b6020821081036105d2576105d1610578565b5b50919050565b60008190508160005260206000209050919050565b60006020601f8301049050919050565b600082821b905092915050565b60006008830261063a7fffffffffffffffffffffffffffffffffffffffffffffffffffffffffffffffff826105fd565b61064486836105fd565b95508019841693508086168417925050509392505050565b6000819050919050565b600061068161067c6106778461034f565b61065c565b61034f565b9050919050565b6000819050919050565b61069b83610666565b6106af6106a782610688565b84845461060a565b825550505050565b600090565b6106c46106b7565b6106cf818484610692565b505050565b5b818110156106f3576106e86000826106bc565b6001810190506106d5565b5050565b601f82111561073857610709816105d8565b610712846105ed565b81016020851015610721578190505b61073561072d856105ed565b8301826106d4565b50505b505050565b600082821c905092915050565b600061075b6000198460080261073d565b1980831691505092915050565b6000610774838361074a565b9150826002028217905092915050565b61078d8261056d565b67ffffffffffffffff8111156107a6576107a5610209565b5b6107b082546105a7565b6107bb8282856106f7565b600060209050601f8311600181146107ee57600084156107dc578287015190505b6107e68582610768565b86555061084e565b601f1984166107fc866105d8565b60005b82811015610824578489015182556001820191506020850194506020810190506107ff565b86831015610841578489015161083d601f89168261074a565b8355505b6001600288020188555050505b505050505050565b7f4e487b7100000000000000000000000000000000000000000000000000000000600052601160045260246000fd5b60006108908261034f565b915061089b8361034f565b92508282026108a98161034f565b915082820484148315176108c0576108bf610856565b5b5092915050565b60006108d28261034f565b91506108dd8361034f565b92508282019050808211156108f5576108f4610856565b5b92915050565b6121fd8061090a6000396000f3fe6080604052600436106100fe5760003560e01c806384b62c2811610095578063c438b40f11610064578063c438b40f14610316578063d5cef1331461033f578063d7bb99ba14610356578063e89e4ed614610360578063f441b1c8146103a1576100fe565b806384b62c2814610259578063b030481314610282578063b19814f8146102ad578063b564e926146102eb576100fe565b80632636b945116100d15780632636b945146101ad57806329dcb0cf146101d85780634a79d50c146102035780637284e4161461022e576100fe565b806302d05d3f146101035780630681ca551461012e5780631f6d4942146101595780632222985e14610196575b600080fd5b34801561010f57600080fd5b506101186103cc565b604051610125919061113a565b60405180910390f35b34801561013a57600080fd5b506101436103f0565b604051610150919061116e565b60405180910390f35b34801561016557600080fd5b50610180600480360381019061017b91906111db565b6103f6565b60405161018d9190611223565b60405180910390f35b3480156101a257600080fd5b506101ab610416565b005b3480156101b957600080fd5b506101c261064c565b6040516101cf919061116e565b60405180910390f35b3480156101e457600080fd5b506101ed610652565b6040516101fa919061116e565b60405180910390f35b34801561020f57600080fd5b50610218610658565b60405161022591906112ce565b60405180910390f35b34801561023a57600080fd5b506102436106e6565b60405161025091906112ce565b60405180910390f35b34801561026557600080fd5b50610280600480360381019061027b9190611451565b610774565b005b34801561028e57600080fd5b50610297610963565b6040516102a4919061116e565b60405180910390f35b3480156102b957600080fd5b506102d460048036038101906102cf91906114ad565b610969565b6040516102e29291906114da565b60405180910390f35b3480156102f757600080fd5b506103006109db565b60405161030d9190611223565b60405180910390f35b34801561032257600080fd5b5061033d600480360381019061033891906114ad565b6109ee565b005b34801561034b57600080fd5b50610354610c4d565b005b61035e610e73565b005b34801561036c57600080fd5b50610387600480360381019061038291906114ad565b611028565b604051610398959493929190611503565b60405180910390f35b3480156103ad57600080fd5b506103b66110f3565b6040516103c3919061116e565b60405180910390f35b60008054906101000a900473ffffffffffffffffffffffffffffffffffffffff1681565b60065481565b600a6020528060005260406000206000915054906101000a900460ff1681565b60008054906101000a900473ffffffffffffffffffffffffffffffffffffffff1673ffffffffffffffffffffffffffffffffffffffff163373ffffffffffffffffffffffffffffffffffffffff16146104a4576040517f08c379a000000000000000000000000000000000000000000000000000000000815260040161049b906115cf565b60405180910390fd5b600654600754106104ea576040517f08c379a00000000000000000000000000000000000000000000000000000000081526004016104e190611661565b60405180910390fd5b600060096000600754815260200190815260200160002090508060030160009054906101000a900460ff16610554576040517f08c379a000000000000000000000000000000000000000000000000000000000815260040161054b906116f3565b60405180910390fd5b60008054906101000a900473ffffffffffffffffffffffffffffffffffffffff1673ffffffffffffffffffffffffffffffffffffffff166108fc82600101549081150290604051600060405180830381858888f193505050501580156105be573d6000803e3d6000fd5b50600760008154809291906105d290611742565b9190505550600654600754036105fe576001600860006101000a81548160ff0219169083151502179055505b7f80230996023d69b50793fa73f1919127c9d8e741d3989743c479169f22e7a288600160075461062e919061178a565b82600101546040516106419291906114da565b60405180910390a150565b60035481565b60055481565b60018054610665906117ed565b80601f0160208091040260200160405190810160405280929190818152602001828054610691906117ed565b80156106de5780601f106106b3576101008083540402835291602001916106de565b820191906000526020600020905b8154815290600101906020018083116106c157829003601f168201915b505050505081565b600280546106f3906117ed565b80601f016020809104026020016040519081016040528092919081815260200182805461071f906117ed565b801561076c5780601f106107415761010080835404028352916020019161076c565b820191906000526020600020905b81548152906001019060200180831161074f57829003601f168201915b505050505081565b60008054906101000a900473ffffffffffffffffffffffffffffffffffffffff1673ffffffffffffffffffffffffffffffffffffffff163373ffffffffffffffffffffffffffffffffffffffff1614610802576040517f08c379a00000000000000000000000000000000000000000000000000000000081526004016107f990611890565b60405180910390fd5b60008111610845576040517f08c379a000000000000000000000000000000000000000000000000000000000815260040161083c90611922565b60405180910390fd5b600354816004546108569190611942565b1115610897576040517f08c379a000000000000000000000000000000000000000000000000000000000815260040161088e906119c2565b60405180910390fd5b8160096000600654815260200190815260200160002060000190816108bc9190611b8e565b508060096000600654815260200190815260200160002060010181905550600060096000600654815260200190815260200160002060020181905550600060096000600654815260200190815260200160002060030160006101000a81548160ff0219169083151502179055506000600960006006548152602001908152602001600020600401819055506006600081548092919061095a90611742565b91905055505050565b60075481565b60008060065483106109b0576040517f08c379a00000000000000000000000000000000000000000000000000000000081526004016109a790611cac565b60405180910390fd5b6000600960008581526020019081526020016000209050806002015481600101549250925050915091565b600860009054906101000a900460ff1681565b600a60003373ffffffffffffffffffffffffffffffffffffffff1673ffffffffffffffffffffffffffffffffffffffff16815260200190815260200160002060009054906101000a900460ff16610a7a576040517f08c379a0000000000000000000000000000000000000000000000000000000008152600401610a7190611d3e565b60405180910390fd5b6006548110610abe576040517f08c379a0000000000000000000000000000000000000000000000000000000008152600401610ab590611cac565b60405180910390fd5b60006009600083815260200190815260200160002090508060050160003373ffffffffffffffffffffffffffffffffffffffff1673ffffffffffffffffffffffffffffffffffffffff16815260200190815260200160002060009054906101000a900460ff1615610b64576040517f08c379a0000000000000000000000000000000000000000000000000000000008152600401610b5b90611dd0565b60405180910390fd5b60018160050160003373ffffffffffffffffffffffffffffffffffffffff1673ffffffffffffffffffffffffffffffffffffffff16815260200190815260200160002060006101000a81548160ff021916908315150217905550806004016000815480929190610bd390611742565b91905055506002600654610be79190611e1f565b81600401541115610c105760018160030160006101000a81548160ff0219169083151502179055505b7f553edf5d6a50b30b5e1faa5428a9962e9b3af648e5ab3791bf7e79ccb10f7f558233604051610c41929190611e5f565b60405180910390a15050565b600554421015610c92576040517f08c379a0000000000000000000000000000000000000000000000000000000008152600401610c8990611ed4565b60405180910390fd5b60035460045410610cd8576040517f08c379a0000000000000000000000000000000000000000000000000000000008152600401610ccf90611f40565b60405180910390fd5b600a60003373ffffffffffffffffffffffffffffffffffffffff1673ffffffffffffffffffffffffffffffffffffffff16815260200190815260200160002060009054906101000a900460ff16610d64576040517f08c379a0000000000000000000000000000000000000000000000000000000008152600401610d5b90611fac565b60405180910390fd5b60006004543373ffffffffffffffffffffffffffffffffffffffff163147610d8c9190611fcc565b610d969190611e1f565b90503373ffffffffffffffffffffffffffffffffffffffff166108fc829081150290604051600060405180830381858888f19350505050158015610dde573d6000803e3d6000fd5b506000600a60003373ffffffffffffffffffffffffffffffffffffffff1673ffffffffffffffffffffffffffffffffffffffff16815260200190815260200160002060006101000a81548160ff0219169083151502179055507fa171b6942063c6f2800ce40a780edce37baa2b618571b11eedd1e69e626e7d763382604051610e6892919061200e565b60405180910390a150565b6005544210610eb7576040517f08c379a0000000000000000000000000000000000000000000000000000000008152600401610eae90612083565b60405180910390fd5b60035460045410610efd576040517f08c379a0000000000000000000000000000000000000000000000000000000008152600401610ef490612115565b60405180910390fd5b60003411610f40576040517f08c379a0000000000000000000000000000000000000000000000000000000008152600401610f37906121a7565b60405180910390fd5b3460046000828254610f529190611942565b925050819055506001600a60003373ffffffffffffffffffffffffffffffffffffffff1673ffffffffffffffffffffffffffffffffffffffff16815260200190815260200160002060006101000a81548160ff0219169083151502179055506006546007541015610fed57346009600060075481526020019081526020016000206002016000828254610fe59190611942565b925050819055505b7f1bb460ccaaf70fbacfec17a376f8acbd278c1405590ffcc8ebe4b88daf4f64ad333460405161101e92919061200e565b60405180910390a1565b600960205280600052604060002060009150905080600001805461104b906117ed565b80601f0160208091040260200160405190810160405280929190818152602001828054611077906117ed565b80156110c45780601f10611099576101008083540402835291602001916110c4565b820191906000526020600020905b8154815290600101906020018083116110a757829003601f168201915b5050505050908060010154908060020154908060030160009054906101000a900460ff16908060040154905085565b60045481565b600073ffffffffffffffffffffffffffffffffffffffff82169050919050565b6000611124826110f9565b9050919050565b61113481611119565b82525050565b600060208201905061114f600083018461112b565b92915050565b6000819050919050565b61116881611155565b82525050565b6000602082019050611183600083018461115f565b92915050565b6000604051905090565b600080fd5b600080fd5b60006111a8826110f9565b9050919050565b6111b88161119d565b81146111c357600080fd5b50565b6000813590506111d5816111af565b92915050565b6000602082840312156111f1576111f0611193565b5b60006111ff848285016111c6565b91505092915050565b60008115159050919050565b61121d81611208565b82525050565b60006020820190506112386000830184611214565b92915050565b600081519050919050565b600082825260208201905092915050565b60005b8381101561127857808201518184015260208101905061125d565b60008484015250505050565b6000601f19601f8301169050919050565b60006112a08261123e565b6112aa8185611249565b93506112ba81856020860161125a565b6112c381611284565b840191505092915050565b600060208201905081810360008301526112e88184611295565b905092915050565b600080fd5b600080fd5b7f4e487b7100000000000000000000000000000000000000000000000000000000600052604160045260246000fd5b61133282611284565b810181811067ffffffffffffffff82111715611351576113506112fa565b5b80604052505050565b6000611364611189565b90506113708282611329565b919050565b600067ffffffffffffffff8211156113905761138f6112fa565b5b61139982611284565b9050602081019050919050565b82818337600083830152505050565b60006113c86113c384611375565b61135a565b9050828152602081018484840111156113e4576113e36112f5565b5b6113ef8482856113a6565b509392505050565b600082601f83011261140c5761140b6112f0565b5b813561141c8482602086016113b5565b91505092915050565b61142e81611155565b811461143957600080fd5b50565b60008135905061144b81611425565b92915050565b6000806040838503121561146857611467611193565b5b600083013567ffffffffffffffff81111561148657611485611198565b5b611492858286016113f7565b92505060206114a38582860161143c565b9150509250929050565b6000602082840312156114c3576114c2611193565b5b60006114d18482850161143c565b91505092915050565b60006040820190506114ef600083018561115f565b6114fc602083018461115f565b9392505050565b600060a082019050818103600083015261151d8188611295565b905061152c602083018761115f565b611539604083018661115f565b6115466060830185611214565b611553608083018461115f565b9695505050505050565b7f4f6e6c792063616d706169676e2063726561746f722063616e2072656c65617360008201527f652066756e647300000000000000000000000000000000000000000000000000602082015250565b60006115b9602783611249565b91506115c48261155d565b604082019050919050565b600060208201905081810360008301526115e8816115ac565b9050919050565b7f416c6c206d696c6573746f6e65732068617665206265656e20636f6d706c657460008201527f6564000000000000000000000000000000000000000000000000000000000000602082015250565b600061164b602283611249565b9150611656826115ef565b604082019050919050565b6000602082019050818103600083015261167a8161163e565b9050919050565b7f4d696c6573746f6e6520686173206e6f74206265656e20617070726f7665642060008201527f627920636f6e7472696275746f72730000000000000000000000000000000000602082015250565b60006116dd602f83611249565b91506116e882611681565b604082019050919050565b6000602082019050818103600083015261170c816116d0565b9050919050565b7f4e487b7100000000000000000000000000000000000000000000000000000000600052601160045260246000fd5b600061174d82611155565b91507fffffffffffffffffffffffffffffffffffffffffffffffffffffffffffffffff820361177f5761177e611713565b5b600182019050919050565b600061179582611155565b91506117a083611155565b92508282039050818111156117b8576117b7611713565b5b92915050565b7f4e487b7100000000000000000000000000000000000000000000000000000000600052602260045260246000fd5b6000600282049050600182168061180557607f821691505b602082108103611818576118176117be565b5b50919050565b7f4f6e6c792063616d706169676e2063726561746f722063616e20616464206d6960008201527f6c6573746f6e6573000000000000000000000000000000000000000000000000602082015250565b600061187a602883611249565b91506118858261181e565b604082019050919050565b600060208201905081810360008301526118a98161186d565b9050919050565b7f4d696c6573746f6e6520616d6f756e74206d757374206265206772656174657260008201527f207468616e207a65726f00000000000000000000000000000000000000000000602082015250565b600061190c602a83611249565b9150611917826118b0565b604082019050919050565b6000602082019050818103600083015261193b816118ff565b9050919050565b600061194d82611155565b915061195883611155565b92508282019050808211156119705761196f611713565b5b92915050565b7f4d696c6573746f6e6520616d6f756e74206578636565647320676f616c000000600082015250565b60006119ac601d83611249565b91506119b782611976565b602082019050919050565b600060208201905081810360008301526119db8161199f565b9050919050565b60008190508160005260206000209050919050565b60006020601f8301049050919050565b600082821b905092915050565b600060088302611a447fffffffffffffffffffffffffffffffffffffffffffffffffffffffffffffffff82611a07565b611a4e8683611a07565b95508019841693508086168417925050509392505050565b6000819050919050565b6000611a8b611a86611a8184611155565b611a66565b611155565b9050919050565b6000819050919050565b611aa583611a70565b611ab9611ab182611a92565b848454611a14565b825550505050565b600090565b611ace611ac1565b611ad9818484611a9c565b505050565b5b81811015611afd57611af2600082611ac6565b600181019050611adf565b5050565b601f821115611b4257611b13816119e2565b611b1c846119f7565b81016020851015611b2b578190505b611b3f611b37856119f7565b830182611ade565b50505b505050565b600082821c905092915050565b6000611b6560001984600802611b47565b1980831691505092915050565b6000611b7e8383611b54565b9150826002028217905092915050565b611b978261123e565b67ffffffffffffffff811115611bb057611baf6112fa565b5b611bba82546117ed565b611bc5828285611b01565b600060209050601f831160018114611bf85760008415611be6578287015190505b611bf08582611b72565b865550611c58565b601f198416611c06866119e2565b60005b82811015611c2e57848901518255600182019150602085019450602081019050611c09565b86831015611c4b5784890151611c47601f891682611b54565b8355505b6001600288020188555050505b505050505050565b7f496e76616c6964206d696c6573746f6e65204944000000000000000000000000600082015250565b6000611c96601483611249565b9150611ca182611c60565b602082019050919050565b60006020820190508181036000830152611cc581611c89565b9050919050565b7f4f6e6c7920636f6e7472696275746f72732063616e20617070726f7665206d6960008201527f6c6573746f6e6573000000000000000000000000000000000000000000000000602082015250565b6000611d28602883611249565b9150611d3382611ccc565b604082019050919050565b60006020820190508181036000830152611d5781611d1b565b9050919050565b7f596f75206861766520616c726561647920617070726f7665642074686973206d60008201527f696c6573746f6e65000000000000000000000000000000000000000000000000602082015250565b6000611dba602883611249565b9150611dc582611d5e565b604082019050919050565b60006020820190508181036000830152611de981611dad565b9050919050565b7f4e487b7100000000000000000000000000000000000000000000000000000000600052601260045260246000fd5b6000611e2a82611155565b9150611e3583611155565b925082611e4557611e44611df0565b5b828204905092915050565b611e598161119d565b82525050565b6000604082019050611e74600083018561115f565b611e816020830184611e50565b9392505050565b7f43616d706169676e206973207374696c6c206f6e676f696e6700000000000000600082015250565b6000611ebe601983611249565b9150611ec982611e88565b602082019050919050565b60006020820190508181036000830152611eed81611eb1565b9050919050565b7f43616d706169676e20676f616c20686173206265656e206d6574000000000000600082015250565b6000611f2a601a83611249565b9150611f3582611ef4565b602082019050919050565b60006020820190508181036000830152611f5981611f1d565b9050919050565b7f596f7520617265206e6f74206120636f6e7472696275746f7200000000000000600082015250565b6000611f96601983611249565b9150611fa182611f60565b602082019050919050565b60006020820190508181036000830152611fc581611f89565b9050919050565b6000611fd782611155565b9150611fe283611155565b9250828202611ff081611155565b9150828204841483151761200757612006611713565b5b5092915050565b60006040820190506120236000830185611e50565b612030602083018461115f565b9392505050565b7f43616d706169676e2068617320656e6465640000000000000000000000000000600082015250565b600061206d601283611249565b915061207882612037565b602082019050919050565b6000602082019050818103600083015261209c81612060565b9050919050565b7f43616d706169676e20676f616c2068617320616c7265616479206265656e207260008201527f6561636865640000000000000000000000000000000000000000000000000000602082015250565b60006120ff602683611249565b915061210a826120a3565b604082019050919050565b6000602082019050818103600083015261212e816120f2565b9050919050565b7f436f6e747269627574696f6e2073686f756c642062652067726561746572207460008201527f68616e207a65726f000000000000000000000000000000000000000000000000602082015250565b6000612191602883611249565b915061219c82612135565b604082019050919050565b600060208201905081810360008301526121c081612184565b905091905056fea2646970667358221220f558bffe5fba26cef6c2f900073dbe329cef7e0fda9bee12dd9a3d2f70e3a33864736f6c634300081c0033",
  "linkReferences": {},
  "deployedLinkReferences": {}
}